:100000000C9434000C948A000C9451000C94510010
:100010000C9451000C9451000C9451000C9451001C
:100020000C9451000C9451000C9451000C9451000C
:100030000C9451000C9451000C9451000C945100FC
:100040000C9451000C9451000C9451000C945100EC
:100050000C9451000C9451000C9451000C945100DC
:100060000C9451000C94510011241FBECFEFD8E026
:10007000DEBFCDBF11E0A0E0B1E0EAEEFAE002C0E1
:1000800005900D92A033B107D9F721E0A0E3B1E0CC
:1000900001C01D92A533B207E1F70E9434020C940F
:1000A00073050C94000052985A9AE9E6F0E08081BA
:1000B00082608083E89A0895259A2D98089580910A
:1000C0003201813021F485B190E2892785B9089504
:1000D0002D98109232010895579A08955F9A0895C5
:1000E0005F981092320108950E9468000E9470008B
:1000F0000E94650160E271E080E00E94840161E19C
:1001000071E081E00E94840160E080E00E94700163
:100110000C9491011F921FB61F9211242F938F935D
:100120009F932FEF80E792E0215080409040E1F7CD
:1001300000C000004A9909C08091310181110CC0B2
:1001400081E080933201109230019F918F912F9125
:100150001F901FBE1F90189580913101813099F733
:1001600082E0EFCF1092B9008CE08093B80084E079
:100170008093BC00089584EA8093BC008091BC0009
:1001800087FFFCCF089584E98093BC008091BC0078
:1001900084FDFCCF08958093BB0084E88093BC006D
:1001A0008091BC0087FFFCCF0895CF93C82F0E9499
:1001B000BB008EE70E94CB008C2F84600E94CB0096
:1001C0000E94C30085E08A95F1F700000E94BB0001
:1001D0008EE70E94CB008C2F8B7F0E94CB000E9469
:1001E000C30087EC90E00197F1F700C00000CF91C9
:1001F000089591E0613009F090E0892B88600C94BB
:10020000D500CF93DF93C82FD62F807F0E94F900AF
:100210006D2F8C2F8295807FDF91CF910C94F90008
:100220002FEF80E792E0215080409040E1F700C03E
:10023000000088E30E94D5008FE19EE40197F1F76A
:1002400000C0000088E30E94D5008FE19EE4019782
:10025000F1F700C0000088E30E94D5008FE99FE01D
:100260000197F1F700C0000088E20E94D50060E02D
:1002700088E20E94010160E08CE00E94010160E0E0
:1002800086E00E94010160E081E00E9401018FE1AF
:100290009EE40197F1F700C000000895CF93DF932B
:1002A000EC018991811103C0DF91CF91089561E044
:1002B0000E940101F6CF0E94BB008EE70E94CB0096
:1002C00088E00E94CB000C94C30060E081E00E94B3
:1002D00001018FE19EE40197F1F700C0000008954D
:1002E000CF93DF93D82FC62F80E4860FD11101C0A2
:1002F000862F60E080680E940101D0933401C09392
:100300003301DF91CF910895CF93DF93D62FC72F7D
:1003100061E00E9470018D2F9C2FDF91CF910C9492
:100320004E0160E08EE00C94010160E08CE00C94E2
:100330000101809134010895809133010895109254
:10034000C50087E68093C40088E18093C10086E001
:100350008093C20008959091C00095FFFCCF8093D8
:10036000C60008959091C00095FFFCCF8093C60011
:1003700008950F931F93CF93DF93CDB7DEB7DA9530
:100380000FB6F894DEBF0FBECDBFFE01E95FFE4F92
:10039000419151919F0160E071E0CE0101960E9470
:1003A00095028E010F5F1F4FF80181918F0181111E
:1003B0000BC0D3950FB6F894DEBF0FBECDBFDF9153
:1003C000CF911F910F9108950E94B201EDCF0F932D
:1003D0001F93CF93DF93CDB7DEB7DA950FB6F894BE
:1003E000DEBF0FBECDBFFE01E95FFE4F41915191CF
:1003F0009F0160E071E08E010F5F1F4FC8010E94F6
:1004000095021F930F938AE291E09F938F930E942E
:10041000B9010F900F900F900F90D3950FB6F894ED
:10042000DEBF0FBECDBFDF91CF911F910F91089519
:1004300080E480937C0087E880937A00089590910F
:100440007C00987F8770982B90937C0080917A0035
:10045000806480937A0080917A0086FDFCCF809141
:1004600078009091790008950E9418020E94B200CD
:100470000E9410010E9453000E945C000E946C00C8
:1004800078940E94740081E00E941F02EC0180E0D9
:100490000E941F029C01C83381E0D80720F510920A
:1004A00031018091310160E00E947001C091320100
:1004B000C13031F580913001811122C00E94650167
:1004C00068E071E080E00E948401C09330010E94E6
:1004D0005F009FEF23EC89E0915020408040E1F7DE
:1004E00000C00000D0CFC93CD24020F081E0809312
:1004F0003101D7CF293C3240A0F20E947400D1CF05
:1005000080913201823019F7809130018111DFCF63
:100510000E946E000E94650160E071E081E00E942F
:10052000840181E080933001D2CFAEE0B0E0EBE90E
:10053000F2E00C944A058C01CB01BA01A90126E036
:100540002C831A83098397FF02C080E090E801970B
:100550009E838D83CE0101960E94C0024D815E81F3
:1005600057FD0AC02F813885421753070CF49A01B2
:10057000020F131FF80110822E96E4E00C9466051A
:10058000AFE0B0E0E6ECF2E00C943C057C013B010E
:100590008A01DC0117961C921E92169713968C9175
:1005A00081FFC3C19AE0292EFE0131964F01D70188
:1005B00013969C91F30193FD859193FF81913F01E7
:1005C000882309F448C1853239F493FD859193FF5E
:1005D00081913F01853229F4B70190E00E94AE0479
:1005E000E6CFB12C412C512CBFE1B51538F08B3240
:1005F00009F188F4803201F1833221F157FC3AC0CD
:1006000020ED280F2A3040F556FE1FC0B29C200D69
:100610001124B22E06C08D3291F0803379F76894A0
:1006200050F8F30193FD859193FF81913F01811172
:10063000DBCF20C0689451F8689452F8F2CF6894E8
:1006400053F8EFCF689454F8ECCF429C200D11245E
:10065000422E689455F8E5CF8E3229F456FCFBC043
:10066000689456F8DECF8C3619F4689457F8D9CFD1
:100670008836B9F2982F9F7D95549330C0F0833619
:10068000A1F18337C1F1833509F05BC0D801CD906A
:10069000DD908D016B2D70E056FC02C06FEF7FEF97
:1006A000C6010E9498045C01689457F80AC00C5F68
:1006B0001F4FEFE3E983AA24A394B12C6401E894CB
:1006C00057F853FC04C04A141B0409F018F5342CE5
:1006D000A114B10431F5332009F469CFB70180E2E8
:1006E00090E00E94AE043A94F6CFD8018C918983B1
:1006F0000E5F1F4FE0CFF801C190D1908F016B2D9D
:1007000070E056FC02C06FEF7FEFC6010E94A304A9
:100710005C01D5CFB70180E290E00E94AE044A941C
:10072000D2CFF60157FC859157FE81916F01B70139
:1007300090E00E94AE0431103A94B1E0AB1AB108D7
:10074000C7CF843619F0893609F074C0F80157FE16
:100750006AC061917191819191918F01E52DEF7640
:10076000DE2E97FF09C090958095709561957F4F1B
:100770008F4F9F4F6894D7F82AE030E0A4010E9481
:10078000DE04C82EC818AC2C5D2CD6FE0CC0E89434
:1007900050F8CB1440F4D4FE05C0D2FC03C05D2D4C
:1007A0005E7E552EAB2C54FE98C0FE01EC0DF11D63
:1007B0008081803309F08AC0652D697E562E752DA3
:1007C0007870372E53FC98C050FE92C0BC2CA414F5
:1007D00018F44C0CB42CBA1854FE94C0B70180E342
:1007E00090E00E94AE0452FE09C088E790E051FEFE
:1007F00002C088E590E0B7010E94AE04CB1408F473
:100800008DC0CA94D12C8FEFC81AD80AC80CD91C35
:10081000D6018E916D01B70190E00E94AE048C1458
:100820009D04B1F758CF61917191072E000C880B90
:10083000990B93CFD52CE894D4F82AE030E0853793
:1008400039F1F52DF97FDF2E8037A9F058F488357E
:10085000A9F08F36D9F0F701868197812F96E2E1D2
:100860000C9458058837B9F7D4FE02C06894D2F8C2
:1008700020E130E00DC06894D4F8F6CF54FE03C0F8
:100880002F2F2660D22E20E132E002C028E030E097
:10089000F801D7FE15C041915191619171914C873A
:1008A0005D876E877F878F01A4016C857D858E852E
:1008B0009F850E94DE04C82EC818E894D7F863CF3D
:1008C00081919191AC0170E060E0E9CF52FC02C0EF
:1008D000A39475CFA394A39472CF852D867809F441
:1008E0006ECFF6CFB70180E290E00E94AE04A394F1
:1008F000A414C0F3312C70CF342C3A18A41408F48B
:100900006BCFF8CF852D867809F478CF8BE251FE36
:1009100080E257FC8DE2B70190E06ECFB70180E333
:1009200090E00E94AE04BA9469CF8FEF9FEF96CF0C
:10093000FC010590615070400110D8F780959095AA
:100940008E0F9F1F0895FC016150704001900110AF
:10095000D8F7809590958E0F9F1F08950F931F9342
:10096000CF93DF93182F092FEB018B8181FD09C0F5
:100970001FEF0FEF812F902FDF91CF911F910F91DC
:10098000089582FF14C02E813F818C819D8128179C
:1009900039073CF4E881F981CF0101969983888376
:1009A00010838E819F8101969F838E83E3CFE8859C
:1009B000F985812F0995892BA1F3DACFFA01AA27AE
:1009C000283051F1203181F1E8946F936E7F6E5F92
:1009D0007F4F8F4F9F4FAF4FB1E03ED0B4E03CD040
:1009E000670F781F891F9A1FA11D680F791F8A1F23
:1009F000911DA11D6A0F711D811D911DA11D20D08A
:100A000009F468943F912AE0269F11243019305D43
:100A10003193DEF6CF010895462F4770405D419334
:100A2000B3E00FD0C9F7F6CF462F4F70405D4A3381
:100A300018F0495D31FD4052419302D0A9F7EACF49
:100A4000B4E0A6959795879577956795BA95C9F778
:100A500000976105710508959B01AC010A2E06946B
:100A60005795479537952795BA95C9F7620F731F24
:100A7000841F951FA01D08952F923F924F925F9261
:100A80006F927F928F929F92AF92BF92CF92DF929E
:100A9000EF92FF920F931F93CF93DF93CDB7DEB703
:100AA000CA1BDB0B0FB6F894DEBF0FBECDBF099497
:100AB0002A88398848885F846E847D848C849B84EE
:100AC000AA84B984C884DF80EE80FD800C811B81FC
:100AD000AA81B981CE0FD11D0FB6F894DEBF0FBE2B
:0A0AE000CDBFED010895F894FFCF9B
:100AEA0042757A7A696E6700426C696E6B696E67E5
:100AFA00005475726E206F6E2042757A7A657200A4
:100B0A00426C696E6B204C45440025730D0A000047
:00000001FF
